:030000000208DF14
:0C08DF00787FE4F6D8FD75810D0208005A
:0808EB0054656D70203A2000F5
:100800001208647BFF7A0879EB12083F1208D18F37
:10081000087F871208C3E50875F064842430FF124E
:10082000089FE50875F00A84120896E508120896F4
:0F0830007FDF12089F7F4312089F1208AD80CD13
:1008AD00E4F509F50A050AE50A70020509B410F523
:0608BD00E509B427F0225A
:100864007F381208C37F0E1208C37F061208C37FA5
:09087400011208C37F800208C3D1
:0E08C3008FB0C2A0C2A7D2A11208ADC2A1225E
:0908960075F00A84E5F02430FF3E
:0E089F008FB0D2A0C2A7D2A11208ADC2A12272
:10083F008B0B8A0C890DAB0BAA0CA90D12087D60CE
:10084F0013050DE50D7002050C14F912087DFF124A
:05085F00089F80E22269
:0E08D100D2A2C2A3D2A320A4FDC2A2AF902245
:10087D00BB010689828A83E0225002E722BBFE0279
:09088D00E32289828A83E49322AC
:00000001FF
