:030000000208E90A
:0C08E900787FE4F6D8FD75810A02080053
:1008880020202057656C636F6D6520202000204470
:0D089800657665736820536861726D6100BC
:10086A007F381208CD7F0E1208CD7F011208CD7F86
:0E087A00061208CD7F0C1208CD7F800208CD3B
:0E08CD008FB0C2A0C2A1D2A21208BEC2A22247
:0E08DB008FB0D2A0C2A1D2A21208BEC2A22229
:100845008B088A09890AAB08AA09A90A1208A560B2
:1008550013050AE50A7002050914F91208A5FF1225
:0508650008DB80E22227
:0E08BE00E4FFFE0FBF00010EBE17F8BF71F57C
:0108CC002209
:1008000012086A7F801208CD7BFF7A087988120867
:10081000457FC01208CD7BFF7A087996120845E41F
:10082000FFFE0FBF00010EBE75F8BF30F57F01124D
:1008300008CDE4FEFFC3EF9430EE947550C50FBFB2
:0508400000010E80F034
:1008A500BB010689828A83E0225002E722BBFE0251
:0908B500E32289828A83E4932284
:00000001FF
