:03000000020800F3
:0C080000787FE4F6D8FD758116020847E9
:10098800496E74727570747320696E2043005573D4
:10099800696E6720383035312054696D65723000D2
:0E09A80044657665736820536861726D610066
:080A5D00021500000213000065
:03000B000209B631
:1009B600C0E0C0D0758CFC758A660514E51470021B
:1009C6000513C394E8E513940340087513007514E2
:0809D60000B290D0D0D0E03255
:1008EA007FF47E011209DE759850758920758BFD9B
:1008FA00758DFDD28E120A3D120A17E4FDFF120908
:10090A00407BFF7A09798812088CE4FD7F0112097D
:10091A00407BFF7A09799612088CE4FD7F0212095E
:10092A00407BFF7A0979A812088C7FA07E0F1209F2
:06093A00DE120A3D80C53B
:100A17005389F0438901758CFC758A66D2AFD2A9D8
:030A2700D28C224C
:0E0A4F008F993099FDC2997F017E000209DE69
:100A2A008F127FFE120A4FAF12120A4F7F027E0008
:030A3A000209DED0
:040940008F0F8D1078
:10094400E50F70058510118020E50FB40108E5104E
:100954002440F5118013E50FB40208E5102414F5C2
:10096400118006E5102454F511E5114480FF120AA4
:100974002AE50F75F014A4AEF07C002510F516ECF2
:030984003EF51528
:01098700224D
:06088C008B088A09890AAD
:10089200E4F50BF50CF50D750E01AB08AA09A90AD2
:1008A2001209FEFF6041120A4F050CE50C700205A9
:1008B2000B7401250AF50AE43509F5090516E51652
:1008C20070020515C3E50C9413E50B648094804017
:1008D200C9AF0EE4FD120940050EE50E7002050DCA
:0708E200E4F50BF50C80B3F7
:0108E90022EC
:100A3D007F01120A2A7F027E001209DEE4F515F508
:020A4D0016226F
:1009DE00E4FDFCC3ED9FEC9E5015E4FBFA0BBB004F
:0F09EE00010AEB647B4A70F50DBD00010C80E43B
:0109FD0022D7
:10080C000208EAE493A3F8E493A34003F68001F210
:10081C0008DFF48029E493A3F85407240CC8C333ED
:10082C00C4540F4420C8834004F456800146F6DFBC
:10083C00E4800B0102040810204080900A5DE47EE5
:10084C00019360BCA3FF543F30E509541FFEE493B1
:10085C00A360010ECF54C025E060A840B8E493A378
:10086C00FAE493A3F8E493A3C8C582C8CAC583CAA3
:10087C00F0A3C8C582C8CAC583CADFE9DEE780BE5B
:010A65000090
:1009FE00BB010689828A83E0225002E722BBFE02F7
:090A0E00E32289828A83E4932229
:00000001FF
