:030000000208A053
:0C08A000787FE4F6D8FD7581270208E798
:10092C00202008003F0006005B004F0066006D00B1
:10093C007D0007007F006F0077007C003D005E00AB
:03094C00790071BE
:0B095000EF25E02408F808E6F5A022DF
:10080000D292D291D290C296C295C294C2932090B5
:1008100028D296D295D294D293C292C291C29020FD
:1008200093047F0180572094047F04805020950416
:100830007F0780492096C980C720912BD296D295F8
:10084000D294D293C292C291C2902093047F02802C
:100850002C2094047F0580252095047F08801E208D
:10086000969EE4FFFE802A209296D296D295D2944C
:10087000D293C292C291C2902093067F037E0080E1
:10088000102094067F067E00800720950A7F097E4F
:100890000012095002080030960302080002080006
:1008AC00020800E493A3F8E493A34003F68001F25A
:1008BC0008DFF48029E493A3F85407240CC8C3334D
:1008CC00C4540F4420C8834004F456800146F6DF1C
:1008DC00E4800B010204081020408090092CE47E77
:1008EC00019360BCA3FF543F30E509541FFEE49311
:1008FC00A360010ECF54C025E060A840B8E493A3D8
:10090C00FAE493A3F8E493A3C8C582C8CAC583CA02
:10091C00F0A3C8C582C8CAC583CADFE9DEE780BEBA
:01094F0000A7
:00000001FF
