:03000000020800F3
:0C080000787FE4F6D8FD75812B020847D4
:10096000202008003F0006005B004F0066006D007D
:100970007D0007007F006F0077007C003D005E0077
:0B09800079007102280000022A00002C
:0E098C00E4FFFE0FBF00010EBE75F8BF30F590
:01099A00223A
:10091700E52925E02408F808E6F5B0E52B25E024CD
:1009270008F808E6F5A0E52B2401FFE4352AFE7C4C
:10093700007D0A12088C8C2A8D2BE52B452A701412
:10094700E5292401FFE43528FE7C007D0A12088C86
:090957008C288D2912098C80B74F
:10080C00020917E493A3F8E493A34003F68001F2E2
:10081C0008DFF48029E493A3F85407240CC8C333ED
:10082C00C4540F4420C8834004F456800146F6DFBC
:10083C00E4800B0102040810204080900960E47EE3
:10084C00019360BCA3FF543F30E509541FFEE493B1
:10085C00A360010ECF54C025E060A840B8E493A378
:10086C00FAE493A3F8E493A3C8C582C8CAC583CAA3
:10087C00F0A3C8C582C8CAC583CADFE9DEE780BE5B
:01098B00006B
:10088C00C2D5EC30E709B2D5E4C39DFDE49CFCEE87
:10089C0030E715B2D5E4C39FFFE49EFE1208C2C335
:1008AC00E49DFDE49CFC80031208C230D507C3E430
:0608BC009FFFE49EFE22F6
:1008C200BC000BBE0029EF8DF084FFADF022E4CC1A
:1008D200F875F008EF2FFFEE33FEEC33FCEE9DECE3
:1008E200984005FCEE9DFE0FD5F0E9E4CEFD22ED29
:1008F200F8F5F0EE8420D21CFEADF075F008EF2F73
:10090200FFED33FD4007985006D5F0F222C398FD63
:050912000FD5F0EA2200
:00000001FF
