:03000000020DA747
:0C0DA700787FE4F6D8FD75811D020BD0AA
:100C430048656C6C6F2066726F6D203830353121CA
:100C53000D0A00414443303830342054656D7065CB
:100C6300726174757265205265616465720D0A0064
:100C73005374617274696E672E2E2E0D0A004144FF
:100C8300432056616C75653A2000207C2054656DC5
:090C9300703A200020430D0A0014
:100D7700E4FDFCC3ED9FEC9E50070DBD00010C8008
:010D8700F279
:010D88002248
:100D5700E4FDFCC3ED9FEC9E5015E4FBFA0BBB00D2
:0F0D6700010AEB647B4A70F50DBD00010C80E4BE
:010D7600225A
:100D89007590FFD2B7D2B6C2B57F0A7E00020D5761
:100C9C00E4FBFAC2B67F0AFE120D77D2B6120D77BC
:100CAC0030B217C3EB94E8EA9403500E7F017E0038
:100CBC00120D770BBB00010A80E6C2B77F0A7E00DB
:070CCC00120D77AF90D2B7C3
:010CD30022FE
:100CD400AC07E41209B0E4FBFA79A07840120800EA
:100CE400E4FBFA797F78431209098F1A8E198D185B
:100CF4008C17E4FFFE7DC87C42AB1AAA19A918A878
:040D040017020800CA
:0E0D9900758920758DFD759850D28ED29922E5
:080DBF008F993099FDC29922C1
:060D08007B007A00790D6A
:100D0E008B178A188919AB17AA18A919120A6560C8
:100D1E00130519E5197002051814F9120A65FF1268
:050D2E000DBF80E22270
:060B42007B007A00790D32
:0A0B48008E178F188B198A1A891B6B
:100B5200E4F51C85181DE518451770107430120A4B
:100B6200ABAB19AA1AA91B900001805DE51DD394B5
:100B720000400C051CE51D75F00A84F51D80ED850D
:100B82001C1DD3E5189400E51794004030AE17AF52
:100B9200187C007D0A120ADFED2430AB19AA1AA9CB
:100BA2001B151C851C82758300120ABDAE17AF1877
:100BB2007C007D0A120ADF8E178F1880C5AB19AA36
:0D0BC2001AA91B851D82758300E4120ABD6F
:010BCF002203
:0C0DB300758920758DFD759850D28E2238
:080DC7008F993099FDC29922B9
:060D33008B178A188919D4
:100D3900E4FDFCAB17AA18A9198D828C83120A7ECF
:0D0D4900FF600A120DC70DBD00010C80E611
:010D5600227A
:100BD000120D99120D89120DB37BFF7A0C79431215
:100BE0000D337BFF7A0C7956120D0E7BFF7A0C7950
:100BF00073120D0E120C9C8F08120CD48F0C8E0BDE
:100C00008D0A8C097BFF7A0C7981120D0EAF087E5C
:100C100000120B42120D087BFF7A0C798D120D0E1B
:100C2000AF0CAE0BAD0AAC091209E4120B42120D67
:100C3000087BFF7A0C7997120D0E7FE87E03120D68
:030C40005780B129
:10080000EC4D6011E8497017ED33EC3304600DE4F2
:10081000FCFFFEFD22E933E8330470F8020A5012AF
:100820000A1B58046009E4CC2481500628500902B0
:100830000A5A284003020A57C0E0EB4A7044B980C4
:1008400006D0E0FB020A46EF4E701CBD8008EBFFAD
:10085000EAFEE9FD80EBE98DF0A4FEE5F00208E98F
:10086000E9CDF9EAFEEBFFEF89F0A4FCE5F0CE89D3
:10087000F0A42EFFE435F0CD89F0A42DFEE435F090
:100880008067EF4E7005BD80D780C3EF8BF0A4ACBE
:10089000F0EE8BF0A42CFCE435F0F8EF8AF0A42CF9
:1008A000E5F038FCE433CB8DF0A42CFCE5F03BF80C
:1008B000EE8AF0A42CFCE5F038F8E433CF89F0A4FC
:1008C0002CFCE5F038CF3400CE89F0A42FFFE5F002
:1008D0003EFEE433C98DF0A42EFEE5F039CD8AF05A
:1008E000A42FFFE5F03EFEE43DFD33D0E0FB5007D2
:1008F0000BBB000F020A5AEC2CFCEF33FFEE33FE69
:06090000ED33FD020A3296
:10090600020A5AEC5D046005E859047003020A50B5
:10091600120A1B580460F6EC4860F2EC7004FDFE07
:10092600FF22C860DB2481C85009C39860025006C4
:10093600020A579850CAF582E9294B4A7005AB82DC
:10094600020A4675F0007C1A7880C3EF9BEE9AED9A
:1009560099400DC3EF9BFFEE9AFEED99FDE842F03C
:10096600DC23ACF0D0E0FFD0E0FED0E0FDAB82208F
:10097600E7101BEB60BAEC2CFCEF33FFEE33FEED19
:1009860033FD020A32E803F830E705C0F075F000DF
:10099600EF2FFFEE33FEED33FD40B830E7C280AAFD
:1009A60075F020800E75F010800575F0087D007ECC
:1009B600007F003392D530D503120B34EC33401050
:1009C600EF33FFEE33FEED33FDEC33FCD5F0ED22D5
:0E09D600E5F0247EA2D513CC92E7CDCEFF2211
:1009E400EDD2E7CD33EC3392D524814006E4FFFE0B
:1009F400FDFC22FCE4CFCECDCC24E0501174FF806A
:100A0400EDC3CC13CCCD13CDCE13CECF13CF047006
:070A1400F030D5DE020B34C7
:100A1B00E9D2E7C933E833F892D5EDD2E7CD33EC21
:070A2B0033FC5002B2D5229A
:100A3200EC30E7100FBF000C0EBE00080DBD000425
:100A42000BEB6014A2D5EB13FCED92E7FD2274FFD1
:100A5200FCFDFEFF22E480F8A2D574FF13FC7D802A
:030A6200E480EF3E
:100A6500BB010689828A83E0225002E722BBFE028F
:090A7500E32289828A83E49322C2
:100A7E00BB010CE58229F582E5833AF583E022502D
:100A8E0006E92582F8E622BBFE06E92582F8E22277
:0D0A9E00E58229F582E5833AF583E4932291
:100AAB00BB010689828A83F0225002F722BBFE012A
:020ABB00F32224
:100ABD00F8BB010DE58229F582E5833AF583E8F06F
:100ACD00225006E92582C8F622BBFE05E92582C81B
:020ADD00F22203
:100ADF00BC000BBE0029EF8DF084FFADF022E4CCFB
:100AEF00F875F008EF2FFFEE33FEEC33FCEE9DECC4
:100AFF00984005FCEE9DFE0FD5F0E9E4CEFD22ED0A
:100B0F00F8F5F0EE8420D21CFEADF075F008EF2F53
:100B1F00FFED33FD4007985006D5F0F222C398FD44
:050B2F000FD5F0EA22E1
:0E0B3400C3E49FFFE49EFEE49DFDE49CFC22D2
:00000001FF
