:03000000020D8569
:0C0D8500787FE4F6D8FD75811D020BCAD2
:100C360048656C6C6F2066726F6D203830353121D7
:100C46000D0A00414443303830342054656D7065D8
:100C5600726174757265205265616465720D0A0071
:100C66005374617274696E672E2E2E0D0A005465D8
:0A0C76006D703A200020430D0A00C3
:100D5500E4FDFCC3ED9FEC9E50070DBD00010C802A
:010D6500F29B
:010D6600226A
:100D3500E4FDFCC3ED9FEC9E5015E4FBFA0BBB00F4
:0F0D4500010AEB647B4A70F50DBD00010C80E4E0
:010D5400227C
:100D67007590FFD2A0D2A1C2B57F0A7E00020D35D1
:100C8000E4FBFAC2A17F0AFE120D55D2A1120D5546
:100C900030A217C3EB94E8EA9403500E7F017E0064
:100CA000120D550BBB00010A80E6C2A07F0A7E0030
:070CB000120D55AF90D2A018
:010CB700221A
:100CB800AC07E41209B0E4FBFA79A0784012080006
:100CC800E4FBFA797F78431209098F1A8E198D1877
:100CD8008C17E4FFFE7DC87C42AB1AAA19A918A894
:040CE80017020800E7
:0E0D7700758920758DFD759850D28ED2992207
:080D9D008F993099FDC29922E3
:100CEC008B178A188919AB17AA18A919120A6560EB
:100CFC00130519E5197002051814F9120A65FF128B
:050D0C000D9D80E222B4
:0A0B42008E178F188B198A1A891B71
:100B4C00E4F51C85181DE518451770107430120A51
:100B5C00ABAB19AA1AA91B900001805DE51DD394BB
:100B6C0000400C051CE51D75F00A84F51D80ED8513
:100B7C001C1DD3E5189400E51794004030AE17AF58
:100B8C00187C007D0A120ADFED2430AB19AA1AA9D1
:100B9C001B151C851C82758300120ABDAE17AF187D
:100BAC007C007D0A120ADF8E178F1880C5AB19AA3C
:0D0BBC001AA91B851D82758300E4120ABD75
:010BC9002209
:0C0D9100758920758DFD759850D28E225A
:080DA5008F993099FDC29922DB
:060D11008B178A188919F6
:100D1700E4FDFCAB17AA18A9198D828C83120A7EF1
:0D0D2700FF600A120DA50DBD00010C80E655
:010D3400229C
:100BCA00120D77120D67120D917BFF7A0C7936128E
:100BDA000D117BFF7A0C7949120CEC7BFF7A0C79A8
:100BEA0066120CEC120C808F08120CB88F0C8E0B4C
:100BFA008D0A8C097BFF7A0C7974120CECAF0CAE5F
:100C0A000BAD0AAC091209E47B007A00790D120BCC
:100C1A00427B007A00790D120CEC7BFF7A0C797B0F
:0C0C2A00120CEC7FE87E03120D3580B840
:10080000EC4D6011E8497017ED33EC3304600DE4F2
:10081000FCFFFEFD22E933E8330470F8020A5012AF
:100820000A1B58046009E4CC2481500628500902B0
:100830000A5A284003020A57C0E0EB4A7044B980C4
:1008400006D0E0FB020A46EF4E701CBD8008EBFFAD
:10085000EAFEE9FD80EBE98DF0A4FEE5F00208E98F
:10086000E9CDF9EAFEEBFFEF89F0A4FCE5F0CE89D3
:10087000F0A42EFFE435F0CD89F0A42DFEE435F090
:100880008067EF4E7005BD80D780C3EF8BF0A4ACBE
:10089000F0EE8BF0A42CFCE435F0F8EF8AF0A42CF9
:1008A000E5F038FCE433CB8DF0A42CFCE5F03BF80C
:1008B000EE8AF0A42CFCE5F038F8E433CF89F0A4FC
:1008C0002CFCE5F038CF3400CE89F0A42FFFE5F002
:1008D0003EFEE433C98DF0A42EFEE5F039CD8AF05A
:1008E000A42FFFE5F03EFEE43DFD33D0E0FB5007D2
:1008F0000BBB000F020A5AEC2CFCEF33FFEE33FE69
:06090000ED33FD020A3296
:10090600020A5AEC5D046005E859047003020A50B5
:10091600120A1B580460F6EC4860F2EC7004FDFE07
:10092600FF22C860DB2481C85009C39860025006C4
:10093600020A579850CAF582E9294B4A7005AB82DC
:10094600020A4675F0007C1A7880C3EF9BEE9AED9A
:1009560099400DC3EF9BFFEE9AFEED99FDE842F03C
:10096600DC23ACF0D0E0FFD0E0FED0E0FDAB82208F
:10097600E7101BEB60BAEC2CFCEF33FFEE33FEED19
:1009860033FD020A32E803F830E705C0F075F000DF
:10099600EF2FFFEE33FEED33FD40B830E7C280AAFD
:1009A60075F020800E75F010800575F0087D007ECC
:1009B600007F003392D530D503120B34EC33401050
:1009C600EF33FFEE33FEED33FDEC33FCD5F0ED22D5
:0E09D600E5F0247EA2D513CC92E7CDCEFF2211
:1009E400EDD2E7CD33EC3392D524814006E4FFFE0B
:1009F400FDFC22FCE4CFCECDCC24E0501174FF806A
:100A0400EDC3CC13CCCD13CDCE13CECF13CF047006
:070A1400F030D5DE020B34C7
:100A1B00E9D2E7C933E833F892D5EDD2E7CD33EC21
:070A2B0033FC5002B2D5229A
:100A3200EC30E7100FBF000C0EBE00080DBD000425
:100A42000BEB6014A2D5EB13FCED92E7FD2274FFD1
:100A5200FCFDFEFF22E480F8A2D574FF13FC7D802A
:030A6200E480EF3E
:100A6500BB010689828A83E0225002E722BBFE028F
:090A7500E32289828A83E49322C2
:100A7E00BB010CE58229F582E5833AF583E022502D
:100A8E0006E92582F8E622BBFE06E92582F8E22277
:0D0A9E00E58229F582E5833AF583E4932291
:100AAB00BB010689828A83F0225002F722BBFE012A
:020ABB00F32224
:100ABD00F8BB010DE58229F582E5833AF583E8F06F
:100ACD00225006E92582C8F622BBFE05E92582C81B
:020ADD00F22203
:100ADF00BC000BBE0029EF8DF084FFADF022E4CCFB
:100AEF00F875F008EF2FFFEE33FEEC33FCEE9DECC4
:100AFF00984005FCEE9DFE0FD5F0E9E4CEFD22ED0A
:100B0F00F8F5F0EE8420D21CFEADF075F008EF2F53
:100B1F00FFED33FD4007985006D5F0F222C398FD44
:050B2F000FD5F0EA22E1
:0E0B3400C3E49FFFE49EFEE49DFDE49CFC22D2
:00000001FF
