:030000000208965D
:0C089600787FE4F6D8FD7581090208594E
:1008590012087C750800750901AF09AE0812080075
:100869000509E50970020508D394FFE508940040DD
:03087900E880DD37
:04080000AB07AA0692
:100804009000017C007D64AF03AE02120831D3E591
:10081400829FE5839E5005D2A0A380E7D3E582940E
:0C0824009CE58394635005C2A0A380F003
:0108300022A5
:10087C00900001AF82AE83E4FCFD7BE87AFDF9F8D1
:09088C00C31208434003A380EAF3
:010895002240
:10083100EF8DF0A4A8F0CF8CF0A428CE8DF0A42EDB
:02084100FE2295
:10084300EB9FF5F0EA9E42F0E99D42F0EC6480C82C
:0608530064809845F022CC
:00000001FF
