:03000000020CF7F8
:0C0CF700787FE4F6D8FD75810A020A4FF0
:1008000048656C6C6F2C20446576657368210057D1
:10081000656C636F6D6520746F2049324300486FCB
:10082000772061726520796F753F004920616D20E6
:1008300066696E652E005768617420617265207963
:100840006F7520646F696E673F004920616D20639A
:100850006F64696E6720636F646521005768657215
:10086000652061726520796F753F00417420686F63
:100870006D652E00000000000000005F0000000316
:10088000000300143E143E14242A7F2A1263130826
:10089000646336495522500005030000001C2241C4
:1008A000000041221C002A1C7F1C2A08083E080860
:1008B00000503000000808080808006060000020B0
:1008C000100804023E5149453E00427F400042610B
:1008D0005149462141454B311814127F1027454597
:1008E00045393C4A494930017109050336494949AE
:1008F00036064949291E00363600000056360000EB
:100900000814224100141414141400412214080283
:1009100001510906324979413E7E1111117E7F490C
:100920004949363E414141227F4141221C7F49498C
:1009300049417F090909013E4149497A7F08080870
:100940007F00417F41002040413F017F0814224148
:100950007F404040407F020C027F7F0408107F3EB2
:100960004141413E7F090909063E4151215E7F090F
:10097000192946464949493101017F01013F40405B
:10098000403F1F2040201F3F4038403F6314081461
:100990006307087008076151494543007F414100E2
:1009A00002040810200041417F00040201020440BB
:1009B00040404040000102040020545454787F48D5
:1009C0004444383844444420384444487F385454DC
:1009D0005418087E0901020C5252523E7F0804044A
:1009E0007800447D40002040443D007F10284400B2
:1009F00000417F40007C0418047C7C0804047838A3
:100A0000444444387C14141408081414187C7C08DA
:100A10000404084854545420043F4440203C4040BF
:100A2000207C1C2040201C3C4030403C44281028A6
:100A3000440C5050503C4464544C4400083641002F
:0F0A400000007F00000041360800100808100871
:090CD700C2A1C2A0120CE0D2A1DE
:060CE000E4FF0FBF0AFC57
:010CE60022EB
:100CC600D2A0D2A1120CE0C2A0120CE0C2A1020C6A
:010CD600E03D
:080D1A00120CD7D2A0020CE07C
:0B0D0F00120CD7C2A1120CE0D2A022EF
:0C0D0300C2A1D2A0120CDBC2A1020CE0C5
:070B7F00AB07120CC67F78E2
:020B8600AD07B9
:100B8800E4FCC2A1120CE0ED30E704D2A08002C25E
:100B9800A0120CDBED25E0FD0CBC08E6C2A1D2A03A
:100BA800120CDB20A0047E018002E4FEC2A1120C1C
:030BB800E0AF06A5
:010BBB002217
:020BBC00AE0782
:100BBE00E4FDD2A0FCC2A1120CDBED25E0FDA2A04B
:100BCE00E4334205120CE00CBC08EAC2A1120CE0A0
:0D0BDE00EE6005120D0F8003120D03AF0530
:010BEB0022E7
:090C9400EA24B0FF120C9DE4FFFC
:100C9D00120B7FE4FF120B86AF03120B86020D1AA7
:100CE700120B7F7F40120B86AF03120B86020D1A81
:100AC9007FAE120C9D7FD5120C9D7F80120C9D7FED
:100AD900A8120C9D7F3F120C9D7FD3120C987F406A
:100AE900120C9D7F8D120C9D7F14120C9D7F20127C
:100AF9000C9D7F02120C9D7FA1120C9D7FC8120CC8
:100B09009D7FDA120C9D7F12120C9D7F81120C9D24
:100B19007F7F120C9D7FD9120C9D7FF1120C9D7F56
:100B2900DB120C9D7F40120C9D7FA4120C9D7FA6A9
:080B3900120C9D7FAF020C9D20
:100C7A00E4FA120C947F10120C9DE4F9E4FF120CB2
:090C8A00E709B980F70ABA08E98C
:010C9300223E
:100C3C00E4FA120C947F10120C9DE4F9EA20E00403
:100C4C007FFF8002E4FF120CE709B980EF0ABA08B3
:010C5C00E1B6
:010C5D002274
:040C18007F647E0077
:100C1C00E4FDFCC3ED9FEC9E5015E4FBFA0BBB000E
:0F0C2C00010AEB64794A70F50DBD00010C80E4FC
:010C3B002296
:100C5E00AA05EF540724B0FF120C9DEA540FFF12A1
:0C0C6E000C9DEAC4540F2410FF020C9DE2
:020B4100A90702
:100B4300E9C394204006E9D3947E4002792074E0FF
:100B530029F9E4FA75F005E9A42474F582E5F03483
:100B630008F583E5822AF582E43583F583E493FF70
:0C0B7300120CE70ABA05DDE4FF020CE7F3
:040BEC007BFFE4FDAA
:100BF0008B088A09890A120C5EAB08AA09A90A1295
:100C00000CAD6013050AE50A7002050914F9120C0F
:080C1000ADFF120B4180E2224E
:100A4F0075A0FF120C18120AC9120C18120C7A1288
:100A5F000C187BFF7A087900E4FDFF120BF07A087F
:100A6F00790F7F01120BEC7A08791E7F02120BECC3
:100A7F007BFF7A08792BE4FD7F03120BF07BFF7A63
:100A8F00087936E4FD7F04120BF07BFF7A08794A70
:100A9F00E4FD7F05120BF07BFF7A08795CE4FD7FA4
:100AAF0006120BF07BFF7A08796BE4FD7F07120BC0
:0A0ABF00F07FE87E03120C1C80F7A4
:100CAD00BB010689828A83E0225002E722BBFE0245
:090CBD00E32289828A83E4932278
:00000001FF
